:100000000C942A000C943F000C943F000C943F0089
:100010000C943F000C943F000C943F000C943F0064
:100020000C943F000C943F000C943F000C943F0054
:100030000C943F000C943F000C9456010C943F002C
:100040000C943F000C943F000C943F000C943F0034
:100050000C943F0011241FBECFE5D4E0DEBFCDBF1E
:1000600010E0A0E6B0E0E2E0F4E002C005900D92FE
:10007000A836B107D9F70E94A8010C94FF010C948F
:100080000000979A00C097980895CF93C82F6623D1
:1000900011F0959A01C095989698BC9ABD9ABE9A0F
:1000A000BF9AC798C698C598C498CC230CF4C79A31
:1000B000C6FDC69AC5FDC59AC4FDC49A0E944100FA
:1000C000C798C698C598C498C3FDC79AC2FDC69A7A
:1000D000C1FDC59AC0FDC49A0E944100C49AC59A48
:1000E000C69AC79ACF910895882311F0959A01C0B6
:1000F0009598969ABC98BD98BE98BF98979A00C05C
:10010000B49B02C080E101C080E0B5998062B699DD
:100110008064B7998068979800C0979A00C0B49996
:100120008160B5998260B6998460B7998860979824
:10013000089580E00E9474008823DCF383E090E05F
:100140000197F1F780E00E9474000895CF93C82FC3
:100150000E94990060E08C2F0E944500CF91089585
:10016000611104C080580E94A600089580540E9426
:10017000A600089581E00E94A6000895CF93C82F9D
:100180000E949900CA3049F4803410F080E001C028
:1001900080E480580E94A60004C061E08C2F0E9479
:1001A0004500CF910895CF93DF93EC012196FC0198
:1001B0008081882329F00E94BE0089918111FBCFA4
:1001C000DF91CF9108951F93CF93DF93182F8D9ACE
:1001D0008E9A8F9ABC9ABD9ABE9ABF9AE0E3F3E7D3
:1001E0003197F1F7C59AC49A0E944100E0EFF3E21B
:1001F0003197F1F70E944100C5E7D0E0FE01319749
:10020000F1F70E944100FE013197F1F7C4980E9476
:1002100041002197F1F788E20E94A60088E00E9441
:10022000A6000E94BA0086E00E94A600812F0E94CC
:10023000A600DF91CF911F9108950F931F93CF9345
:10024000DF93CDB7DEB760970FB6F894DEBF0FBE71
:10025000CDBF8C010E94BA004AE0BE016F5F7F4FA4
:10026000C8010E94CA01CE0101960E94D3000D323E
:10027000114048F061E082E00E94B00080E690E02A
:100280000E94D30008C061E082E00E94B00084E6D2
:1002900090E00E94D30060960FB6F894DEBF0FBEC8
:1002A000CDBFDF91CF911F910F9108951F920F92B3
:1002B0000FB60F9211242F933F934F935F936F9339
:1002C0007F938F939F93AF93BF93EF93FF9384B1EB
:1002D00095B10E941D01FF91EF91BF91AF919F9148
:1002E0008F917F916F915F914F913F912F910F90DF
:1002F0000FBE0F901F90189580E181BB83E28FBDE8
:100300008AE18EBD8CE590E09BBD8ABD8FE190E0D7
:1003100099BD88BD8CE00E94E3008DE083BF84EB33
:100320008CBF89B7826089BF80EC87B98EEA86B9B5
:1003300080E680BF7894089510BC89B988ED8AB9A9
:1003400086E880BD08958BB18823E9F38CB10895C8
:10035000CF93DF93CDB7DEB760970FB6F894DEBFCB
:100360000FBECDBF8FE290E00E949C010E947C01F5
:100370000E94A3014AE0BE016F5F7F4F90E00E94A0
:10038000CA0161E088E00E94B000CE0101960E949F
:10039000D300EECFBB274A3031F4992322F4BDE2DB
:1003A000909581959F4F0C94D601BB27FB01552753
:1003B000AA27880F991FAA1FA41710F0A41B8395C2
:1003C0005051B9F7A05DAA3308F0A95DA193009739
:1003D00079F7B111B1931192CB010C94EF01DC01CB
:1003E000FC01672F71917723E1F7329704C07C916C
:1003F0006D9370836291AE17BF07C8F30895F894A8
:02040000FFCF2C
:0804020044414E004E4F43003F
:00000001FF
